:020000040800F2
:10000000B00600202902000831020008330200086F
:10001000350200083702000839020008000000001D
:100020000000000000000000000000003B0200088B
:100030003D020008000000003F02000841020008E5
:10004000430200084302000843020008430200087C
:10005000430200084302000843020008430200086C
:10006000430200084302000843020008430200085C
:10007000430200084302000843020008430200084C
:10008000430200084302000843020008430200083C
:10009000430200084302000843020008430200082C
:1000A000430200084302000843020008430200081C
:1000B0002908000843020008430200084302000820
:1000C00043020008430200084302000843020008FC
:1000D00043020008430200084302000843020008EC
:1000E00043020008430200084302000843020008DC
:1000F00043020008430200084302000843020008CC
:1001000043020008430200084302000843020008BB
:1001100043020008430200084302000843020008AB
:10012000430200084302000843020008430200089B
:100130004302000800000000000000004302000825
:10014000430200084302000843020008430200087B
:10015000430200084302000843020008430200086B
:10016000430200084302000843020008430200085B
:100170004302000843020008000000004302000898
:10018000430200084302000800F002F800F03CF8C7
:100190000AA090E8000C82448344AAF10107DA45E2
:1001A00001D100F031F8AFF2090EBAE80F0013F0F8
:1001B000010F18BFFB1A43F001031847D8080000CD
:1001C000F8080000103A24BF78C878C1FAD852075E
:1001D00024BF30C830C144BF04680C6070470000C1
:1001E0000023002400250026103A28BF78C1FBD840
:1001F000520728BF30C148BF0B6070471FB500F0E1
:1002000037FC1FBD10B510BD00F031F81146FFF7E7
:10021000F5FF00F017FC00F04FF803B4FFF7F2FF12
:1002200003BC00F057F80000094880470948004720
:10023000FEE7FEE7FEE7FEE7FEE7FEE7FEE7FEE796
:10024000FEE7FEE704480549054A064B70470000F3
:10025000C507000889010008B0000020B006002092
:10026000B0020020B002002070477047704775460A
:1002700000F02CF8AE4605006946534620F0070012
:10028000854618B020B5FFF7DDFFBDE820404FF0F0
:1002900000064FF000074FF000084FF0000B21F070
:1002A0000701AC46ACE8C009ACE8C009ACE8C0093D
:1002B000ACE8C0098D46704710B50446AFF3008026
:1002C0002046BDE81040FFF7A8BF00000048704777
:1002D0004C00002001491820ABBEFEE726000200BA
:1002E0007047F0B50A4600210023002400BF3DE01E
:1002F000012505FA01F3156805EA03049C4234D18F
:1003000005684F000326BE40B543056015794E00D1
:10031000B5400668354305601579012D02D0157981
:10032000022D16D185684F000326BE40B543856077
:1003300055794E00B540866835438560456801268D
:100340008E40B5434560456896798E40B6B23543D8
:100350004560C5684F000326BE40B543C560D579EA
:100360004E00B540C6683543C560491C1029BFD34F
:10037000F0BDF0B5002300244D07ED0E02FA05F3A1
:10038000CE1000F1200555F826504E07F70E0F2627
:10039000BE40B543CF1000F1200646F82750CE10DE
:1003A00000F1200555F8265045EA0304CE1000F16F
:1003B000200545F82640F0BD4FF6FF710160002191
:1003C000017141718171C171704700001CB501213B
:1003D000084600F01FF900208DF80400012000906D
:1003E00002208DF8050000208DF8060069460248BD
:1003F000FFF777FF1CBD00000000024010B5134856
:10040000FFF7DAFF1248FFF7D7FF0121042000F0C1
:1004100001F902200D490871C001086000208871AF
:1004200048710C48FFF75DFF022208210948FFF7D9
:10043000A0FF012006490871400208600020887171
:1004400048710448FFF74DFF10BD00000000002078
:10045000080000200008024010B51648FFF7ACFF66
:100460000121080300F0F6F80121084600F0D2F857
:10047000052204211048FFF77CFF052211460E4893
:10048000FFF777FF052206210B48FFF772FF0522D1
:1004900007210948FFF76DFF022006490871F02087
:1004A000086002204871002088710348FFF719FF97
:1004B00010BD0000100000200000024010B5FFF742
:1004C000CBFF00200B4908804FF482704880002049
:1004D0008880C88008814FF4007048818020C881DE
:1004E00038208881044800F0F0F80121024800F02B
:1004F000D5F810BD2C000020003001400FB50020C1
:100500008DF800008DF80100019002908DF80C002C
:100510008DF80D008DF80E000FBD000010B5012103
:10052000084600F087F8012000F0A4F8012000F050
:10053000A9F8164800F07CFA0020144948800720EA
:1005400008804FF47A704860002008814FF08040A6
:1005500000F02CFA01221146900700F0B9F91C2096
:1005600000280DDB00BF00BF00F01F0201219140F9
:100570004209920002F1E022C2F8001100BF00BF60
:1005800000BF0121880700F086F910BD400000205F
:1005900000B585B0012000F06DF8012000F072F880
:1005A0000121022000F046F8184800F041FA00202E
:1005B000164948804FF4FA500880801048600020A7
:1005C0000881134800F0F2F9684600F0E4F9602071
:1005D000ADF800000120ADF802004FF47A700290EF
:1005E0000020ADF80C006946094800F07BF90121B4
:1005F000074800F0C7F90121054800F03DF9012145
:10060000034800F048F905B000BD0000400000209C
:100610000004004029B1064A12680243044B1A60E4
:1006200004E0034A12688243014B1A6070470000DD
:100630003038024029B1064A12680243044B1A605E
:1006400004E0034A12688243014B1A6070470000BD
:100650004038024029B1064A12680243044B1A602E
:1006600004E0034A12688243014B1A60704700009D
:10067000443802400021024A117011460870704748
:100680000238024001460020034A106820F00300AF
:1006900008431060704700000838024021B102880A
:1006A00042F04002028004E002884FF6BF731A4015
:1006B000028070470246002013890B400BB10120D5
:1006C00000E0002070478181704710B50022028849
:1006D00002F441520B884C8823438C882343CC88F6
:1006E00023430C8923434C8923438C892343CC899E
:1006F00023431A430280838B4FF2FF74234083838A
:100700000B8A038210BD000070B500200022022376
:1007100000240221274D2D6805F00C00042020B193
:10072000042806D0082834D107E0234D234E356035
:1007300033E0214D214E35602FE01E4D2D1F2D68D9
:10074000C5F380541B4D2D1F2D6805F03F0154B19A
:10075000194DB5FBF1F5174E361F3668C6F38816EE
:1007600005FB06F209E0144DB5FBF1F5114E361FFD
:100770003668C6F3881605FB06F20E4D2D1F2D6850
:10078000C5F301456D1C6B00B2FBF3F50B4E3560F4
:1007900003E0094D094E356000BF00BF054D2D68CF
:1007A000C5F30315064E705D044D2D68C540034E1C
:1007B000356070BD0838024000127A001800002031
:1007C0007A0A00081448006840F470001249086072
:1007D0001248006840F001001049086000200F49ED
:1007E000083108600D4800680D4908400B49086051
:1007F0000C48091D0860081F006820F48020091FAC
:100800000860002005490C3108604FF00060024983
:10081000803908607047000088ED00E00038024031
:10082000FFFFF6FE1030002410B500214FF080408D
:1008300000F031F80121880700F039F8A0B101215A
:10084000880700F025F802210A48FFF733FF012846
:100850000AD10A210748FFF736FF00BF802105486B
:10086000FFF728FF0028F9D10121880700F013F8CD
:1008700010BD00000030014021B1028842F080022A
:10088000028004E002884FF67F731A4002807047AE
:10089000CA430282704721B1028842F001020280FD
:1008A00004E002884FF6FE731A400280704730B5AC
:1008B0000246002000230024158A05EA01039589D9
:1008C00005EA010413B10CB1012000E0002030BDA5
:1008D0001AB183890B43838102E083898B4383812F
:1008E0007047000070B5002400220023058C4FF6ED
:1008F000FF6635400584028C8388848B4FF68F75A4
:100900002C404FF6FC752C400D882C434FF6FF55BC
:100910002A408D894FF6FF7606EA05252A434D8841
:1009200006EA05252A43154DA84202D0144DA842D7
:100930001DD14FF2FF752A40CD894FF6FF7606EAAA
:1009400005252A434FF6FF352A408D8806EA0525FE
:100950002A434EF6FF752B404DF6FF752B400D8A4E
:1009600006EA05152B434D8A06EA05152B438380BD
:1009700084838D68C563028470BD0000000001405F
:10098000000401400A460021818B4FF6F77319409D
:100990001143818370470021018041808180816003
:1009A0008181C1810182418270470000002202885A
:1009B000184B98420ED0184B98420BD0B0F1804F94
:1009C00008D0164B984205D0154B984202D0154BD3
:1009D000984204D14FF68F731A404B881A43124B3A
:1009E000984207D0114B984204D04FF6FF431A406B
:1009F0000B891A4302804B68C3620B880385054B41
:100A0000984202D0044B984201D18B7A038601238D
:100A10008382704700000140000401400004004050
:100A200000080040000C004000100040001400408E
:100A30004FF0FF31416000210180018141808172CE
:100A400070470000FFF7BEFEFFF75EFEFFF7D6FC23
:100A5000FFF734FDFFF79CFDFFF760FDFFF7B6FCE5
:100A600002480FC8FFF74AFD00BFFEE71C00002048
:100A70004FF04070E1EE100A7047000000000000E7
:100A8000000001020304060708090000000001023B
:100A900003040000B40A0008000000201C0000004D
:100AA000C4010008D00A00081C00002094060000C1
:100AB000E00100080000000000000000000000004D
:100AC0000000000000000000000000000024F4000E
:0400000508000229C4
:00000001FF
